{
  "address": "0x643143faf41173F720746714601648a90C2F22B4",
  "abi": [
    {
      "inputs": [
        {
          "internalType": "contract IBaseERC721Interface",
          "name": "baseFactory",
          "type": "address"
        }
      ],
      "stateMutability": "nonpayable",
      "type": "constructor"
    },
    {
      "stateMutability": "nonpayable",
      "type": "fallback"
    },
    {
      "inputs": [],
      "name": "atId",
      "outputs": [
        {
          "internalType": "uint256",
          "name": "_value",
          "type": "uint256"
        }
      ],
      "stateMutability": "view",
      "type": "function"
    },
    {
      "inputs": [],
      "name": "contractInfo",
      "outputs": [
        {
          "internalType": "string",
          "name": "",
          "type": "string"
        }
      ],
      "stateMutability": "view",
      "type": "function"
    },
    {
      "inputs": [
        {
          "internalType": "string",
          "name": "uri",
          "type": "string"
        }
      ],
      "name": "mint",
      "outputs": [],
      "stateMutability": "nonpayable",
      "type": "function"
    },
    {
      "inputs": [],
      "name": "nftImplementation",
      "outputs": [
        {
          "internalType": "contract IBaseERC721Interface",
          "name": "",
          "type": "address"
        }
      ],
      "stateMutability": "view",
      "type": "function"
    },
    {
      "inputs": [
        {
          "internalType": "uint256",
          "name": "id",
          "type": "uint256"
        }
      ],
      "name": "tokenURI",
      "outputs": [
        {
          "internalType": "string",
          "name": "",
          "type": "string"
        }
      ],
      "stateMutability": "view",
      "type": "function"
    },
    {
      "stateMutability": "payable",
      "type": "receive"
    }
  ],
  "transactionHash": "0xf69163bb98c33aa5cb924700b2ea0c326894f031349772d7b21943a23c4045c8",
  "args": [
    "0x86c67a16C16BF784BdFE7D4b7575dB664D191F88"
  ],
  "solcInputHash": "26a0ea7a37fb674250fcde8b6085bf56",
  "bytecode": "0x6148806040526147c460808181529062000a6e60a03980516200002b91600391602090910190620001a7565b503480156200003957600080fd5b5060405162005232380380620052328339810160408190526200005c916200024d565b604080518082018252601081526f426c65756c616e6420466f6c6c69657360801b602080830191909152825180840184526008815267109311555310539160c21b8183015283516080810185526103e881528451808401865260008082528285019190915285519384018652808452818601939093526060810183905282546001600160a01b0319166001600160a01b038716908117845594518695929391929062000113903390879087908790602401620002e0565b60408051601f198184030181529181526020820180516001600160e01b031663b1a78e3f60e01b179052516200014a91906200037f565b600060405180830381855af49150503d806000811462000187576040519150601f19603f3d011682016040523d82523d6000602084013e6200018c565b606091505b50509050806200019b57600080fd5b505050505050620003da565b828054620001b5906200039d565b90600052602060002090601f016020900481019282620001d9576000855562000224565b82601f10620001f457805160ff191683800117855562000224565b8280016001018555821562000224579182015b828111156200022457825182559160200191906001019062000207565b506200023292915062000236565b5090565b5b8082111562000232576000815560010162000237565b6000602082840312156200026057600080fd5b81516001600160a01b03811681146200027857600080fd5b9392505050565b60005b838110156200029c57818101518382015260200162000282565b83811115620002ac576000848401525b50505050565b60008151808452620002cc8160208601602086016200027f565b601f01601f19169290920160200192915050565b6001600160a01b03851681526080602082018190526000906200030690830186620002b2565b82810360408401526200031a8186620002b2565b9050828103606084015261ffff8451168152602084015160806020830152620003476080830182620002b2565b905060408501518282036040840152620003628282620002b2565b915050606085015115156060830152809250505095945050505050565b60008251620003938184602087016200027f565b9190910192915050565b600181811c90821680620003b257607f821691505b60208210811415620003d457634e487b7160e01b600052602260045260246000fd5b50919050565b61068480620003ea6000396000f3fe60806040526004361061004e5760003560e01c806315c43aaf1461006f5780635af8124e1461009a578063c87b56dd146100bf578063d85d3d27146100df578063f61ac58b146100ff57610058565b3661005857600080fd5b34801561006457600080fd5b5061006d610137565b005b34801561007b57600080fd5b50610084610168565b60405161009191906104ae565b60405180910390f35b3480156100a657600080fd5b506001546100b19081565b604051908152602001610091565b3480156100cb57600080fd5b506100846100da366004610503565b6101f6565b3480156100eb57600080fd5b5061006d6100fa366004610532565b610298565b34801561010b57600080fd5b5060005461011f906001600160a01b031681565b6040516001600160a01b039091168152602001610091565b600080546001600160a01b03169036908037600080366000845af43d6000803e808015610163573d6000f35b3d6000fd5b60038054610175906105e3565b80601f01602080910402602001604051908101604052809291908181526020018280546101a1906105e3565b80156101ee5780601f106101c3576101008083540402835291602001916101ee565b820191906000526020600020905b8154815290600101906020018083116101d157829003601f168201915b505050505081565b6000818152600260205260409020805460609190610213906105e3565b80601f016020809104026020016040519081016040528092919081815260200182805461023f906105e3565b801561028c5780601f106102615761010080835404028352916020019161028c565b820191906000526020600020905b81548152906001019060200180831161026f57829003601f168201915b50505050509050919050565b306001600160a01b03166313effa0f6040518163ffffffff1660e01b815260040160206040518083038186803b1580156102d157600080fd5b505afa1580156102e5573d6000803e3d6000fd5b505050506040513d601f19601f82011682018060405250810190610309919061061e565b6001600160a01b0316336001600160a01b0316146103595760405162461bcd60e51b81526020600482015260096024820152682737ba1037bbb732b960b91b604482015260640160405180910390fd5b806002600061036760015490565b81526020019081526020016000209080519060200190610388929190610415565b5061039b3361039660015490565b6103ac565b6103a9600180546001019055565b50565b30604051633dc8ded760e01b81526001600160a01b038481166004830152602482018490529190911690633dc8ded790604401600060405180830381600087803b1580156103f957600080fd5b505af115801561040d573d6000803e3d6000fd5b505050505050565b828054610421906105e3565b90600052602060002090601f0160209004810192826104435760008555610489565b82601f1061045c57805160ff1916838001178555610489565b82800160010185558215610489579182015b8281111561048957825182559160200191906001019061046e565b50610495929150610499565b5090565b5b80821115610495576000815560010161049a565b600060208083528351808285015260005b818110156104db578581018301518582016040015282016104bf565b818111156104ed576000604083870101525b50601f01601f1916929092016040019392505050565b60006020828403121561051557600080fd5b5035919050565b634e487b7160e01b600052604160045260246000fd5b60006020828403121561054457600080fd5b813567ffffffffffffffff8082111561055c57600080fd5b818401915084601f83011261057057600080fd5b8135818111156105825761058261051c565b604051601f8201601f19908116603f011681019083821181831017156105aa576105aa61051c565b816040528281528760208487010111156105c357600080fd5b826020860160208301376000928101602001929092525095945050505050565b600181811c908216806105f757607f821691505b6020821081141561061857634e487b7160e01b600052602260045260246000fd5b50919050565b60006020828403121561063057600080fd5b81516001600160a01b038116811461064757600080fd5b939250505056fea264697066735822122076847f0cd9b0142ba8acc102fe80dee57a2219774997a974a1d2dbb2e513849864736f6c6343000809003365776f6749434a68636e5270633351694f69416952474670626942436247396b62334a75494574706253497343694167496d4673596e5674583352706447786c496a6f67496b4a735a5856735957356b49455a76624778705a584d694c416f6749434a6862474a316256396a62335a6c636949364948734b4943416749434a746157316c496a6f67496d6c745957646c4c3342755a79497343694167494341695a4746305953493649434a70566b4a50556e63775330646e623046425155464f5531566f5256566e51554642624764425155464b57554e425455464251554e4b64556471645546425155464857464a475630685356474979576a426b4d6b5a35576c4643516c70484f576c6155304a4b596c6447626c7057536d785a5631493159324e73624642425155464265565a77566b5a6f4d4664464d55315062553532596c4d31614670484f576c61557a5530596c68425155464251554642524863765a55684361466b796447786b51304a70576c646b63474a714d476b334e33557653576c43634670454d476c57656c5a4f5455557864314579566d39685657673259323157564756724e56565a4d3342795758707361306c714f43744a524867305432356f64474e484d57786b5230566e5a55637863324a7554545a6c5244427057566453646c6c7456545a69626b3032596c64574d466c544f476c4a534763325a55637864325248637a6c4a61305a72596a4a4b62456c476145355651304a45596a4e4b62456c455758564e517a4671545552424d6b6c45597a564d616b5579546b526a4d5531356432644e616b463554564d34643031704f48684f557a4234545652764d5531716233684e6555466e53554e425a306c445157644a616a526e5545684b6131707163464e5352566c6e5a55637863324a7554545a6a62564a7455464e4b62325249556e6450615468325a444e6b4d3078755933704d62546c35576e6b3465453955617a564d656b46355448704a65557859536d7461615446365a5663314d466c595a335269626b317153576f305a314249536d7461616e4246576c684f616d4e746248646b52327832596d6c436556704857545a5a563070325a4668524f556c705357646c527a467a596d354e4e6d56484d586451553070765a456853643039704f485a69626b313157566453646c6c745658565a4d6a6c3054444e6f61474e444f48684d616b463253576c434e474a586548566a656e4130596c6843546c52554d476c685346497759305276646b77794e58704d62555a72596a4a4b62457874546e5a69557a6b3057566842646b31544e48644d4d6a463054486c4a5a3256484d584e69626b3032597a4e535531705857546c4a625767775a4568424e6b78354f58566a6554566f576b6335615670544e5770694d6a42325a556447643078365258564e517a6c36566b6873643170544f564e61574535325a46684b616c7057536d7861615531705355686f64474e456345526a62565a6f5a45633565565a484f585a695244427055566453646c6c7456576456523268325a456335656d46484f58644a52456c355447704e5a3074464d57685a4d6d78315a456335656d464461326c4a5347683059305578546b39726248566a4d314a6f596d314f62464e5655546c4a626d683059304d316347465855545a52616b5a4754577456656b39455454464f5246557954565247526c46365a7a5252616b70445457744b526b3956546b5a50564768435430564e61556c496148526a5254464f54327453646c6b7a566e5261567a5577553156524f556c756148526a517a5672595664524e6c4671526b5a4e61315636543052524d55354556544a4e56455a475558706e4e464671536b4e4e613070475431564f526b395561454a505255317055476c424f4756484d58645556544132556b645765574659576d786152567035596a49775a324d7a556c4e6156316b3259566331656d5248526e565a4d6c5a4b556b5177615756484d58644d62577877576b52775130315656586c5356453030545652564d4535555758684e56565a455430526f5130317253586c5261315531555442564e5539465254525265556c6e597a4e535531705857545a61527a6c715a46637862474a75556b7053524442705a55637864307874556e4261524842445456565665564a555454524e616c5577546c525a65453156566b5250524768445457744a65564672565456524d465531543056464e46463553585a516155453454444e4b613170716345566157453571593231736432524862485a69616a526e55454d356556704857545a5661314a4855476c424f45777a5a7a5a6c527a4633596c64574d466c554e47645152446b3059306447616d4579566a424a52315a31576b517761574e70535339515a336c4262565177515546425155705652586856556d597a4b79395259567079556d397453305a72527974795155464251314a5655315653516c5a49616d4533536a4a4b5a3352314e6b52725458417655446c4964444a5064444e74566d4a71636d56454b7a4532596e6c5855314e4f54574642526b566f556c706e515546425155464251554642515546425155464251554642515546425155464e5156706a5548464561544535537a685a596b78594e6c55334c7a4932625767336444687965465a5154573579513364595a445a554e57746d4e5449724e6a64324e336c305a693931597a46356255497254485a7a61585a36533170485a79744e63565a3452456c594e335269623168764d6d5a7a55486c504e6938796430643453584a5655334a6a616b3434636c686e597a6870566d5935646e684a61693950574668565445683562474d354d4563766545316a5669393254336b314c3367774d43396a4e6d78714f466f774e473957616c424553566873574374794b3059794e7a6b765645646e56553954544573724f544651567a4277626a64454c306854633239774d55746f4e4851775245647257564e764d576451536d78615632313461544a3364475647613031555444643357554a7a63326c48516d7376575338774e4842565a33417a4f5752504d477476596939324e484a72556e4a485a5564336233707a596b6f795a46686a4e6b525355584a4b5a5549354d5846525a6b74774b3363725354564d6556683056585534656d6b7654586f3564304a745a55527a566a5a4b636c423557444d35553342496146705955324a4c5a456b3162457330627a4534556a4e59627a55774d46524f4e30777651336b34636d786e566c42714f5456574e6d7849646c4e7a4f456c4759575a4f55553948655664684e48417253323534624564315655786e63324631526c4134546d646a55336878544659344e6d6c534f4734334e557479555870684e45746e4b327072626a527764564a77624770315a6a64686230704e636a55764c32744e616a46556332644b4d554e314f4841314d576c454e6a6b35576c56544e6e6731646939304e55686c4e5864784d48466d53336f34626d51325a6c55344c324e764e5752516433645a576c42755a3146794e4670315a5556716147773165444e5856446c33624841324e6b7333544863305747564c63486772617939594d585a6b516b453556574633646d67355557517a6430564251554642515546425155464251554642515546425155464251554642515546425155464251554642515546425155464251554642515546425155464251554642515546425155464251554642515546425155464251554642515546425155464251554642515546425155464251554642515546425155464251554642515546425155464251554642515546425155464251554642515546425155464251554642515546425155464251554642515546425155464251554642516d5a6e556c41764d3255724c305a34516b7730535746425630464361587053544578455a6b4a6d6157746d4d3078565347686d4d3073354c7a67774b7a4a494f565269646d31434f474577565551324f545648656e56334e7a5a6d54336379645570305a6e56785956426f57466c7353485a584e6e4530625539794c32704c627a526a52475648555574355248704754465673636a425956693950553238774d31413456326878654751345a326c4557456845526c5a48636d31764f544649596a46535445646c55336c364d585268536c424b4e3164716432395a59314e3452484a5756473158556d743656456c76644656336557683062476c4656545a34574555776155464e655738795657453161324a74646e52685a6c464d4b3264704f46686a62456c52635451315932316f5332786c56456855553030796254637a5a7a56706279396f566d4e5465544e694c3067315958425256544647646a46564f57397761564e466433466a636d7872596c564c596a42795646597662324a5555584671566c4d355745746b5a564e7864306447644670565a47705752484935533274794b325a6a546a684a61464230575739324f55784c61327845566a6857513356576547705461444270566b56784d6c42466133563661315246626a633163467046523346325333567352484e3257445649525852554d334255597a4e4e5333637252306855644546506257465a4c334d725a4656686155355951306c714d6c564e574442764f4556486331647653553557626b74685131646b636e52534b3035786131646d55334a484b314e356545347857454a486356704362554e4c596c4a6a626b78534e69397859566478526c6c74634664716457784d5a323975565868724d6d4e535132773554484a446255347763454a5855545a4f4d4731344e3342304e4852424d315644616e5a724e6e4e5a56315a3362554578546c5646536e4a754b315a54543035554d4731735157387861325134636b7474575842614d45747657565578536a5a4964325a6a556d464c5a6e59785a5338794d477448626b34344d6a646c557a6c56526a686c616b4e72525770354d32387254474a7463557058536e5256656d526e57437477536d30325a4642466132787a6230777964546870546b315862314a445a5863325a5651354d5564564d44684262565a6d4f554a6a61453072566a4d79656d78364e32314f4d3363355a566f356347673562466c30644564544c3259324d32525757576c6c5a69744e616a5a58576a4a4f616c4130516d593062305a785644644964544172626d7035636d70595a574a545746597a53457855576b6776546b56445356566d635570586455645457444634566a4a30536a5a784c336c6d566d59774e7a6c3256564133656e424d6433633264454e4d556b5a71643234335745466a5546526e6255744b56335646636d6c575748425451544a4c6147637a5354684e5933497257476f3062325532576d7834536b7870654664694b3152354e3035744e585530566a4a7556306f315745744f596e4a455a4570734d7a5a4765556846616a4633656e426865564670526e4a355631646861446836566e6333597a4132556d785161467070546a6435525664425a6a4e4d4e6a6c31656d78494d57394b62453979645868554d585a3054476c69566d31525457746b523074356432785365473175624739764d584a30656b784757486c694f5841314d7a4a59654730726545786c643238765747524b63484e3054314269566a646d535456694d6c686d623170524d6b745462566c4c52444d7659586830536e6b3259586c615647493359575a544c314a71646c6c53575446324d575a544e456c725a486c344e3046304f477073616e6b78656b4d774d54687a4d6d4a4563575a34615446596145743456457776656d307a4f566f7956556858536e524b5a467078566a4578646d6c76656a4a576258686e4d54686c535535526343387961477032566b785064454d32656a6c32636a46526332593261566c4563554a6862545132647939794d6b4a314d33685759305a4d615756574d307779556c4d79576e647259574e4763556c5163454a79513168755a6d45334f55746b5a46684f63476c766130467761577857626a685755454e51546a49795646647762576448616a645853444a316331493053314e5765444649596b644e55485670596a4e7962306c3252555631616b7044636e465553586731563246544e6d5976593264744e69394b64575645563277775432685965476874644774345655567254334a7a536d3574596b7332566c526b536e63324e484d31566e4a6a61327044627a4a50523268495756645052444d76517a4e684d55564a63465132636c644f526e704851325a3457565a585755357a4e456c7661304e7a5247457a536d7874576e6831535773304e6d46744d544e585357644662556b7a6555744b6132706b53327855636b7734545546595648704a5a3146304c3264736346427664584e6a65485a704e57314c5a45513052575278626a6474617a644353556c6e4d5452684b30683659325a554d7a4e4f4e5849354c334e30625731536430565063326c586355393657464d766355786d63475a59596c6b35625764695a6c5977536e6c4852465a6c4b7a4a4863555633656c5631556e6f354c327430563152315230395765486332553052584e7a424f61484e4f6148527a646b303564576378596e4a304b306477614731444e557430656e4a474e464a614f456f7a524338724e58566e5547746f61456f795179394a53566c734d555a79536d744b54444a495348553157455a33647a425955326c71567a5634566e4a516330395853486446656d4e6f5a57644359314532555846334e466c584f564a6152465279546b56424c326c455631526c4e5778545443747462544244597a684362326b786545705554306877567a565153576843624752535954684c4b3264474e6b6852645770734e324a304f577377536e524755577448637a4a3451334a4c4d55744954584a544d6d354762585a57593274704c79397664584e69636a6835624777774d7a457a4d58704e5a6a566f6558425a63693969636a464d4e6d3142555768704c315a5465445a6f5a44526b5753395361476c54636b6c6d5a545a7651545a34596d314e4d3270514e324e4f636d51774e484a304b326b32643346614e30747761565a784e58597a4b79744e4e45355a5a444646633234345245684c546b70704b3239354d6e467359555273546a42325548707762554e585447526f526d6772546a425962476c535233453456574a73536b5a6a566c6c6b57476c4a536c5a50636c5277553239575a7a4e575133646b4d7a41346545395063586468646c5179593164614e565a75626b347764544a764f56645761546c6d5a454d784d324a45636b457a54697473526b6b34636c6850554442694e56644a61476b7a595670585a553179536a68794f445679596a525563554d305256647464304a52636b6831627a466f63477072554446545647517852797436554446356555785464565a5962316f7861577469656d5a6f4d576c314d5864754e4442356246705063564a59626c685162464d785447684d6546527956484e754e324e4d64455a795a6e4d775454427665586f3555546c74566d396f4f5735735530746d5a6b4e5263587069523074524e334d724d6e4a794d6b7049533356594c32387861544e444e465933656d7455576c5642637a5a4c57465a594e6b3136627a6c4e636d526a62473430576c6c4f4d446443546d39484e33563155324a4861533872576e6f354f473831526b4a45636e513063565a524b305a36516e52344d6b746964444e5a5744497a62326f3455555658544752775448526f554449724d44597661585a5062546c3055586c6e5456426952476735526c6c564e6a4a614d6c45334d446c305932354d543270464f4374714e6b74505247785053564e6151334a4b633277334d4852594d586c795358425a596a4278556c467a5a5670515169393662574d30643356344e3274426331526c5a474a616548566a5169745062453435656b356b4d7a6b78526d70365258567862476c69564868534b33524d556e6c695358645a5446566954464a6b4d6b647252334d7265454a4d56544d726246513457475246655846764d566457595856734b3078494e4845785633466c4e58425252314a30654756475544497a516d39454b3077794b334e714e6b59304f5868745a31684c4b33465051546c50566e4670565338305533526856323955517a4e34526e4a304e6a45784f544179516d64564d57673553564631574768496357453455545a615331426d626c5a7a563270714e456c50655535324b323561556e4a4763323557536b35325356527164585a795a6d687964553170553034305a6d683165476b7a596b6c4f4e6a6c5952553974624578334d44464859324e7a4d32703263575531516e59765157353452584e6864305a76557a5a516145687351564a4f5a6a426d62315a6c63575a4c656b6c43556e55314d485a45536e49344f5531355a474e69516973355a44686f4b7a6457617a5a514c30464c636a5278526e7074556a49344e6e7035636c5275563052345a555572616c64304d30307856326435535656325a306459576c5a6a627a4679646d526f62485a475a46564863304a774b326449626b45355969394e56306c4f576b524d6456527163454a576154465954484a496458643561556856546e4e616356426c65455932516e4a4954315278655763775432564b4d56685262587048646a524b53576b78626a4670626a465a63564a4c4b336c48546d703355575246533368366257784365554e51593068685a6b707256303078656d523262474a3054306f3559576777616c5a444e4459355430525a5333644c616a5a7756324e5a55307036646e52734d546c7a4d4459724d6d3479524759344e453171624859334e4846695455644253305a4655576c57516a5177645374714e6d316d4b304e6c56304e58536c644d6432644953475a71576b52474f46633253546449565656784e324e76544574714f5849765a45565064474a76596b4d77636a56795457526f616b34786258466b523251316231645261586830626e67326144523255316b35534652544e31564e57576b78643146514d576876647a4d7a54473178623156496231643155564e345232347254556f794e32526d4d6b4e51656e4e4b596d687361484932566b525565565a725248426b536b6c795a564e6c52314a46526e4e6957693957625559304d334246543049304d53393053475272633142774f475a724e44684753305a334d7a426d57475a595a3073344d6c4e51654442504e5539565a43383364573478546b74745131645156575a7556566847595770495a584a555a7a4250536e673255444274656e42354f465a4a5a47453255586c76566e6c784f446c334d6d35585747467862453551616b6454616c566d52464e4756334a6d6457567263586b35526a6430646a565864566c6c56323135596c42535757463364476c5756324e514b79744c5a314a70596c597753485a594d6b35574e6a42465331464953334e4b64546454656a6c71536c6c5a5754597256557335556a55764e484d774c32396b5255743253307335516e68724d47314565455652524856714e5642304e566c7a5547396e4d584a354d455a4a5930706f567a52514d6d315463576c4757564e6a62303561654535764d53383461474a7153464e45567a6872635339764f45526d4f44686d536a4535635752324d6e4e70556a466c655567725757746a5a6c424d4d30645363554e4e5533457263454e7a64486c69597a566f575539474d7a5a615531464e646e63335747527a64306434596e4135616d31554f47646a53485a5763465242574842755a6a5a68537a5979597a597a61473950545339424e30645861336c51526d6c764e58425a6245637a635868475a53396c5545744f553370784d305972647a564f575641774e46705a526c6c4d4d546c35626b6f33556a6c79566b3955634645724e47744f596e52364d4468355a574d3264326857624663795455684763327054636e4a6c6148426162327730526e677956464e55616a6c45526e6c596333524457575935536d49354d6d4e31566b7461576c644c656d39684d79733057473975574738796458497a536b6c4b575755764d6939755230784f553342535679394e54564a755a464659546b78734f544e6a4b32465654566b33536c4256555746365654647a6446526d54584d32547a4670637a6876656d4a56565646464e6c42514d6c4a4d54584e31567a424d557a5a495a486445563146684f46644b576e4e5359584668556e42614f47646a4f55784d554464365555744256304a5664565a30597939506330396161585578596c557a53577831596b68496447526d546e513555476f3052576852516d4a4654326c796479394b616d5630513259764b3031724d5734315a585a5056444a36644574326257746b61573154656d63314d7a56475a33525a5957303353566731613055775233524f5a7939544e3038764c793973516a524c51545a6c634668565557457a4d6a4531576a4d7a643234335754644451553832637a644565584a515630593056564250524442495757677756476861516e5a685a485a7555484a58556e4e4e5a584d35644442366344464862564e795157685762565a57576a6861616c56425657707356557078546d744e4d5442684b334d7a4d5539784d334e7959697478535646684d5531745933566f62465250543368545248424c6358685152444e4c526b39444e476b784f5668505a6a64744d314656637a646c4e7a4a6e646d70495a6a465a4e6b5231556b74315244426e61586855636e647a4c334e554e584a464b31644559586435535564784e465a79655749784f4731784f455a6c5a6d4e6d5747395865485979544664735a7a4e7464566c705a444a585548687a5345524651334e5959564e78626c647a4d586c4c524531685a487074544851784d6d59304e7a4a314d5468525953747a626e4a45523278695132356154475931646d4e57596b525a5355395054484e365a57526b5330524a5a466c504e444a465a315535567a5669656d6c444d335255596d737654304675595773334d326c4d52544a7453314a78646c46495332707659544e4d5130683356557858546d52776333464d644870684e6e52335557463564456831624374734d584a61575539714d53394b4d56424c626c42746547707a54325256655464435445646862584655616a6431536d56755679746a5446647365564d30633064364d325a704f476f354b314e794c315a31555468535579746a52576830614568764c3156316146526e5a6d4e47513070516447786163326b32646b30724d577873655770774c3046424d6d31714e6d74575558467656304a6d4d6b5a504e47356c4e7a527a4d474e794c7a4a61517a646e62476875544467724d573150636d3152627a56775755527562793942616c5a46593356365332784554455232656d4a535a6b786c55454a34547a64614c314648636a67775747777863556845636c425665544e4d646b397959586c7565456b7854567051615755785a6c5932656b68695a456b324d57466f4d6e4a6a4e5530785a554e5a615464515a6d5670526c646a5a57563057456c576358466a5757526f6247647556306c5a59576c616247315563334e7754445178537a52324d326469566e5250636a427764544a6d54437332576e463457446831546e4e34516e4a784d485532643168795744644d5533527564327858556a5a6e65586856636e4a7053584a7a56473557576b704e55545a724d6e64576354684e555535325745784a4e57303257453479636d784b4f554a465a6d706b4d316831615578335433685863586450596c4e764f4746454e555a6a596a68794e57467154444e704d555a33616d6c56556b685053315a55566e4675614870796145347653485a4c636c5258636c5a5152586c365530466e597a4e6c5557705761584656575549764d5442724d454631636d526e54303932596a5676566d6f3359544d345447527a55476c5563474a714f446c584f4559785747706b59334270545642555345465762566c4a4b324e3064457477626c64515954424a546c7077536b4a304c33684f546e704962486c69637a4e71615646724b315a49626e4a4a6331464c4d5778464c3359775a574a4c4b3342694d304d33526d4531547a424d63567054596a46684e32525559553943566a41314d576430554870485930707863303550645746744e33565a556d704659585a48516a5a7a615777775154566c65574d76633064706155396163335669626d744e5630317064793833635856714d5734334d6a424b63446842636c425852546c31576d5a574d586c484f484230517a6b3256554d72553346615630785065544e4d546e4e78646e5a4d54453147534374315131564c615842355646427959325a51643063774d6d3173546d566a4f56524c545759314c314a6962474e6f567a6431636a426b5a3035514e6e4a324d6b737663337077513035344d5564454d32746862316468656b5a7953336851636973774e565a324d335a4659314a784f587030636b64364e7a6b76553352445348645852457058567974345633593563466c4b515374535332684956584a6b595670324e553558656a5a4a63576f794d334e7959566772516b673452444e4d64315a7a54455a364d6a425a55565a4c56465655556a46794f545246543356565455786155304a4f626d59784d6b526b5255396a64335a6b536c56564d473950655664454d444e5a55484130526d4533633263314f56706f52484a4d52323930646d78436546424f5430383154444e4d6255744d4e444646567a42795a303179636b4630656e5279574339334e6b52754c315932593074704c7a417a6247645a5a57744b5a48424e626d39705633706f4e544a4a61334a5a635556534e32396d53553561526a42504e4868684e7a5a7353334678543039595454467a4e584e455169394f4b30686a4f484e5865554e4f64566c734e6c5a484d6d70424f464d32643074764c7a4a50596e55315533425759585678533145795954566a61444a544c7a56564d324a584e486859537a526b626b464465474a7a557a517264465a755455307253464e6b596b4e6e555670775454425956584a6156584d775230707165454a35596a4a42626a6c4e6331493063484a6e4e316b78616e70584d486c4f5a327458654446314e3346316431424553486c55646d6f34626d524565565a75526e4656626d5176516c5a795a335a714f4735445a455a326254566d5a475a584e577446515556506448686e6146647a515868585769744f59575a594c7a6b354f47644756475652644563334e3256335357686f51334a4e5933524b4d6b3132624845764d7a46576230684e4d3246464e58426c5a57466b64566b794d5641335a315a7055465a444d337061623039476130786e64464e77626c645559573931646c467853303569545459785132525861466376546e4648596e6f354e555242596a6c6c636e46754e3274745448564756334a56546b51785157646c57437479575531594d474674623146334f567054656d4e5455473134566a6c786255566b55326c714f476c4f4f576478556c68744f4564774e4856505657704762334e7a4d566772527a5a6d64545a306430643453476c7357564669526d4e345a576c5a4e314a3354474e77563064496447356a4d6d4e436379387a636c5278616b4a3063307847524863324e6d3135616b787752554e73646a42505a6d527961464230543164356257564862553973576e464f5644467a5932684961566b7663306c6e5a6d5a755330314762453136637a5a5a56304a304d6b6c315758466b4e6e686a596939796331564c6430673463336c324d6d4e3563564a6f53485172543252694d334e505a697470616b4e4253315243513252614d4535366479747a576e497763315a345248685754475a34566b70315a335a43596d646a596e464c516c5279596c5273563274775630524c5a474977623063795a6e647a5a565a6e553168534e476c355a446c354f45315a4d6c684856473535546c56444e6c4e514d316853546e4e76616e68496345566e6356647762467030636c466865555a764d6b5a7152444259633246695954564c596d564456303835536e517a63573530656c6f7661475243513346796144466c62554e55613231504f55347a4f585a78544664685332524a61336856636b524b616a685a51326778623370474b32784f6245744f5132707a566e4246595868306358704655484e5664576b7a4e6c704465565a4b61335a6d554664424e47356863474a3562456c6d57564e71636e453153306b784b314a7a63465935644734334b7a463253464535635374726232394b5247787865465a4c56697334556c4d32616a5576613052774d6b45355a326c6e5a455658626c4e366257744854304a424d47785859324645526a6c785155317a59304e464b3368784f433957564570745a44564355575a4b54325a794e7a5531576c49794e437335596d597753334e6b4e55707a4d53744e4d58704e654770474d574a32525652554e6e5a61576d523265486878626a5a744d474a6b5154643451306c35645764755a5568454e556c446144684d566e55784f564e6962324a4a546b7450566e67345a466869595852326430707055574932576a55314e553478545731344d334e5261466856576c6c4d574739544e555a70646b5532544652454e57567662564d3061555a506455343456544675646d387a63576868525763786155356163466c325a6d6c74575739534e4464474f473072544467326354563452545a694f476f3253565a526444644a6430357556484a546231427662316c314b30685059584a564e6e6c4865586c7352314132626c6c784e554e575a5756575a55645563555a575a6d6f796454464b546c4654637a645856544a704f56684d6245647a56797473566d355a537a566c545670365754553554553034627a424b566b63795358427655545935536a686857575256536c4a51636d3177555855334b306853556a4d79633368774c7a684d4d306f7a59336832625567784b7a4a4d646b46365353393456326c334f48467364586c53567a4234566973784d584a3253454e6a615468705647786c5a6b3835546d5a705569393456316c30626b3177635655334d46645859793832636d314b656c68504e47557a5a30387854314a575232357752466c6c4b3156754f566c3156445131546d4a744e79393361337070645574474e3070785154457965485271563074755648425553585655546c597657576b765a45747951585177627a5972556d63764d315a444d58524e4b3164495544526965545578576e52325a48526b5632303053334e72566b567065566836636d46694b7a52715a6d3548554670464e3146784d324a425a487055526a4976525559315645737963544d7a566c46795456686164576b355a555a6b6346524d51577047537a6446656c5a6f4d6a4a7a5233644563566c786445383064466f33523356555a446334637a464e4d33427354464179655456354e47464d556c63336458644c567973355745686b63544e4661334e514d45746f655846685633497a636d56444d6d4678595764764f564d3462584579534546735a6b684263485a685631527753314249596b55774b33464c56326c79553142565248466d56457056544770764f4559795a46526d4d486c6f4e30744c526b343163307475646c677a523142454d4574366246463365584247566a526d52466b344e45527a5a45785557433977626c63784e446c59555530355a6b784357586b34543268695a6d747263484a5363325675596e4e7162573569595868704d32354a554545725154564455453977595735686356644b57453957527a465a56484a4f536d4a69626b52426255706b56464a71644670775a47466a5954597763327055646d396859564e5361487049556d6f7656324d7855323872576b355a656c5a4e64555a44617a4655636b5a72526c6c50656b6c4f5756524457474a70547a4678636d646c5a6e70344d57524c556c4a45636a677852446c3062464e4753454e315a564a334d6e6875626b3143527a684b59557450615739566557566a63584a4f4d6c4e455645566c62456c764d564275646c4e4d547a4d345a3064615a6e41306557396d51585270576c68504d565a4a4e585172635373724c7a564b5a6a4a5a526e68425331597664697444614746306332565a566d704e55306858647a5655636d6c6e595567326157787955574a436333525a5930785a64555a48636b777265574e7a513031616433467a4f566b3151584a436448685362475576555745794b323832516c6c4759324e4c5555743555464d31636e4649654755794e57787159304676566d6c325756457a566e6c30595851314d473549636e42784e555a6f5a3141314d7a64434d55355a61556c5a566c63325157637863484e444e474e7562697454636e566e656d4a71633068485533457257554a7a56456f7a6144466f5a304d345447673564584e4661455a705a3364714d48524d5157355761455a3356554d7856486c784b336470526d4e52615868586369394d63477036524768796357785a4b304a30596b35515357526954453131646c5257526b74585457356c53554a61636c46784d5531774f486731567a6c69556d317053566875646e567854445677557a6c6c61556c48615764595630453265454e6a56454e5651314e46567a5934516c63336555357a656d744865464231645574754c30747a5a6e524f656a4a475a31427a566d6451644778726355746e6430525656444a305355355a5447566b566d4630545578764d3170574e56644352484a684b307073556a686f56337046616d5250545764505758497951314e45596b704955584e7464324a495245743553315a4f5a3274586545687656485179596d7868655746774d7a64544f575a31545735455445686c52585a3462576c58566974504c336b72526c6451576d78796548426a524464465a5849724d7a4a6962574579626a427255334247624646546544686f6145466c54475a54627a4978537a52515455397861465a7055466f3153335a7a644764465347463357555253543064454c7a4e50636a526b57584a34565852444d303576526d4d346345396d6432687a553346465630357556546c42543039615a545a75536a4e5751584a495a6c52365654677a546e5a6d656a6779575767786333524754456f72626c70445a31643452334a77576a5a57536e52435155785a616c56735633706f56545a6c61556f31516b464d5245517a557a524859576858516b52796355523059566874544870564e6a424663316f3152557849633055764e55744b6447557664454e74537a6c4462584a564f544931626b35544d55524d516b74304f464e52554538785a485a4a5a467059637a644752484a6856573947616d34345658564b613039766447684654335a45646b523056484e355156646861474a58616d4531634442525a476b765a6c52684d6d777a5a6c644861584e6856574e3061564256656a597952474a6f6379395862323155656a6b7a57485277566a413163314e584d556c4f5955705751584659544668795a566f31624570434e5467785345707563584a495357644e62334178517a4933526d39525a57686c4b315a50596a6c554e6a4e796554453353557730526b78494d437435646c6875556b46704f44644c5a3038355769394d5332685856554e334d554e765757387863473559544564354b315674627a68734e335659576e46565555685356334a4c51334e6c4b7938795256644c5a45643364693932636b4e505746424d55454e4a5a6b517a5a58424e63485256636a646c555870476457705865487047554849764d6d4e6a65546874516c684d5a45737a5955357265465a5761473877564864484f464d32615568616145744c656a56585a4749725a58517a65453535516a4242645746715130637a6345463456455631623035784c31524663587046614668344e6a526a5179737855335933556a526b597974735a454e70646e5a4d5632785a4e79745953486c5056325a706330563356305a526348426d655452735246687762484e78636c6c6962316b7757477848636e6b784e325a494e314d306344466e59584661556c5132526e5a35656a68574d564a545448424f55326b7a544778724c31706e61556c53597a59726155685355326334574464534f48646f4e307061574778594f476b7756326c48525668554d5574784e6b314352484a4d646d3558517a64355333524563326f7864544e6a596b3154626c70535344413361453433636e5243636b743054544271616b4a7a4d485577575770444f47746861573177524442515a544a6e6431417255577034546b74734d55784d5a3035706148566c59697457515649345432356e61544652616c64784e6e46435756417652475a524d574934526e644f566b4e7a546d513463304e6c57484a58634646345455746d4e314644517a4e615247744c4f445278543031744d465278546a427154474a6b5548644665457877526c46564e6e684962544d7a65584a505655313261466c4e536e6c68525531715654564b6458467362334e58566e56714f4746345930707959305933517a426852464d304d48706f4d32745163316730623164705231524f4d3256326247464755327055516d387864454a784d7a46464e46493352697474625764475533707a5a5546495a3052686357316d576b685754315a76633142464d6b706b53565a364b326f33646e4d79576b5679526c56304d4774484e4734785a7a4e76576a644652693972575374575a7a5a436331526c4c304e69546c467951334e6a65566832576d3832526c6c50544539595a3239734b305172526c59335133553055544634547a566a523146594e4656354f5642464f56705352484a72626e6f31536e4e616230744b536d4a616346703054305a4259316c7a523356585a6e4e785a485a69526c553453576c354f476c34534774786332563556485253576a4233546e5a72546c707654556c34555570695a57465857565a4e574556515a54466865466332515664465a6e4e4c4e6c6858646e4a54646e4e4f56567047614552795a5656785643394d5155633362465579527a464c655670584d47316b4d45397a56445277566b64514b335678526d56344d5445794e585a335345597261445a34563231344b307871555846714f4670545a45394661455a76635445776548424f53474e73536e4a4d654856305a473172515464464b306f7857464a484e444a7a5657704659557435576c703256466c614e316456563368496346644b59576443646a4e334d6d7858546d6333626c64514c315a70525864724f464a784e336f32516e6777633159306433566a636a5a79546c637a556b6c5962433950636b5a7a56537435655642444d7a42685246563254476448616a4e684e466c466445387754306c714d554e6a566b7450566b5a6a637a645962324d7a5a566461613234304f46524b654739774b7a46355a44526f4d57677a557a5a546345517765465671575664344c7a63774d47394f63325a6b543245306231427a5933525a53466c765931566c654664735245686d63307377646b3877646c703064475271636a46555745394b635531484e6d4e30564864344d476f34646c6372656e5a4851584a306145567157577434565668534c7a4a49626b6430626d464d567a525061336443546d785a55466378556a424a546d46485a475930635777344e445a4a5955527662474e7756485232536d3948546e4e6a566e4259596e4972556c4e6851586c55633239696245677a53334d774f464a754d6d52764e546b7765457044654859766332785a566a41305a586c6a4e304e77566e526f5648597651576831646d6c49555464474b32355854585249636d5272536e6c776256684d6245354354564a46544746324c3049766258525052445252543346574f53383253484a49563077355330316c59554e5557446b304c7a5a7a563351764d6b644b62335649613031524b7a46345658524456466c476445643554555672615735744e6e5931536c4d3257454d76525756554b325a5852316c735631465a59334e355746706862475a5a4e6a644f5353745955564e734e584d725958685064474a71576b707a52565a306545356b567973785745707a5a6c70745745685151325256536a424d5545787a5758466c563059314d304e4f5957687955327470656c4178647a684c61554e6a53584657535573774e79387262566835574852354d6b64584e6d513161304e4652464531654856495a484653646b4e556169393256584670633034315957317165564a34544535614d5564314d6d746f566d6777616e4a464e6a5255633235705753396f656b7459636d78615955773262316844566c645357545677576e686b63574a6b6144466b5a30706d56484634636b74706354466b62465a4f626a4e7961303130566e705159335a3554314a3559335655596a6731576e4670526c6b3462475a4a4d45784d6179745a555535454d564e6e56314678655534776256644d52573158524539314f58686c61465972566c6c775a7a5653596c52756232307255585a6a5a324a704e7a465a6557307854314e5557477857516a52785a44466e5153745a63307073567a4a504b3256354e5570505745687759586b30556b513363555a4b62316433655841725a6e7046646b68726158707561444e6159585659534668555a556c6b596e6777637a563557545a6a644578536248497253315a446257394c5a6a4661646b6f7a63485934646a56444c3368354e544e785a5768766156425762305a6964466858556c677261305a6f563168694b336831556c42715a4467345a4578524f564a706455356f6158517a654574705a6d314d613278764e6d46354e6d5246646a6b3554444e61566b46745358525a6246644f635739524d6e4254563164575453394c4d6d4a795656684d517a4e354e574a435255684e4d30643462456f76596a4274556c5933566b687a556a467156565a4d516c4a79517a645763336c575433646b5a5735685a6d4d78655755306333497961456c5655334e6b576e4a4853564e4f61577732556c684a566d6f726144424c626a646c61464e764d48685163486871616c56764e315a52656e425665556869596c645455475a7a5932787a615656344d334a7552574e334f546477624534765748677a4e6b56764f456c44546b68526146686962304a3054306476556c6b785633563655475135636b5a42655870714d5667774d45705363485531624577324e7a424b56327459596a4e31566b6479616b744a4e584d785a6b52554f486c70544664495756526952484176566a6335634464596247686b4b314a6d55314d324e6c6830533273325755644e63565a7a4d336c4e616e6f35656c4a565630526e4e553568616c7073516e4e61623234344d6e56726332645053317074567a645554456b304d324a7056457030636e5931575568515957557a623052344d557859636a4248576b7033576d314465556b355631425a5a45465762305a434e5852336356525a636b457862586868536b39616231564557575a735257646f616c685a6153733463474e354c7a453553484e5753474a6d576b3947656d7073574768455757637857444578597a687352484a365333686f63455577566d354d5a326f775232315a65474e324e6e6c57615846594d32525354554e596446466c546d6c4c54544e30545730785545354a516c6c71576e6c4a596c4a49543352786356646a64446b3354566431627a4a486357383061464e7662556454624749325a456c485132707759334d7765446c3259305a71564539495758517855584e55576d7333596c6c714d48465a4e6d5245616b4a325545526b6246566a5533425655484934644767795a6a6c4b4e585977616d3947553370684e327457596b45775747395865453979646c4649646d567364693956625452574d544e684f564a725131686b636c68744d4738774f4864566547785862574a5061584d77565870595a305a7a595452734d69745a54323171656d464e595463765533465156546830527a6470574442314e555a696145644263455a344f4852615548423656455a56644535526455644f61556457636c67724d585a74654735595a47354b5248465a63476c59654768496345646e62564a4a4c304e6f4e33565a646e5a30616e6f3156586b35656b5243536e466d4e33706b536a4e7053465a684d3035325a3231744e6c4a4d525668595546426f5632466853473434626c70454e5646576148464f56573979643367336154687057544a445a6b5233636c5a3553454e45567a417252446c4c5533557a4d6a64706432705562577730636b567753584252524452354e304e6d54467079536e46705932786c4d3074795a456c7a526b393063306469546c513262325535596d314d526e425854486c5653585658516e4e594e6e4e334b305278557a427962555a7562466c684f5535364d554e4656304e6d54486b7a62477071596b78494e323979656b4a73554570364e53396f62577032596c6b7959565a444e464d3156586c4d4d584645636c6868516b6c4761573557556a5275574441725758426b4d457473536c5236526b6c4b62457875637a6778616a637857466f304e554675615842714d575276626c6b345757644a633155306257704a4d484978625446354e44565352584268596c4534634863304e53394d56314658566a5a77576c524c4e565a535447466c63474630523055315579746d4e6a6476576e5243596a6c58636b784a516d4e3364444e784b33646e616c6c78624842475a437470576d6c68535739784f5670456253395a626d4a4563466c7762456379624764614e3052694c30394c646b524a61466333533252525456564a6255524464486c685645645a4f53393354556f3063464577626d31444d3152455a58425863473536536b6c7a65484a61636c564255486c75574446474b323032624656574f58564b4d6e6f3264476c4556314535554451775756646a55456c544b3064464c327476637a6c6c4f58417a62576c615547457a576b4e515757347755564a6a5a4531574f487077656c5647655868616432465056335a4c5a6a526f4d5641724d5841724d54527a5a46637662485a7865475647563256565444564b616d39576154464f626a463255565a6f547a52584e544242616c45314d57746d616c6c6953485a50597a524354455a3165565273516d70475233557a4d56644364464535596e4178526b746164484a30615763344e6d737956316c524e6a5a7659336b76596c463563545a71566e527753456c6b597a646d53304a6b5a6c4a436153396a64324a32566d52425a45397564336b79535656345247303453584e6b4e6d5a514e6a424c575731514c325a436345644f576e4232656b46764d585131636d46524f577057557a523163466f79634446764d326b33646b644c4e56417761566c30613078535254645363584135545445356130706d574556765a6b5236526c52324e45685251336377596b4a6e554656686430684b64546b7a56315a4e54316333636d464465474a464b33557a62485a4c64474a5a556b527965566c7762446c3559566430563146586545464a62305a7a556a5a6e526d6843544568435957524a576c6b30516e7049516b644c4f544e786354673154444a6e5630526c4e475a32576b4e6c6130317a596b68775632685a4f47347861585a4c55486845636d687a55586c7051566434564778755757597762586c4a546d466b516b397a64473976576d6b7656465245633268685547645761544e4a4e566c7856476834557a68585a6e68524e5841324d5539695546646f56564252636b5a31556c4e346430387751584e42544556584e4538334b7a457855475531654734765955464251554642515546425155464251554642515546425155464251554642515546425155464251554642515546425155464251554642515546425155464251554642515546425155464251554642515546425155464251554642515546425155464251554642515546425155464251554642515546425155464251554642515546425155464251554642515546425155464251554642515546425155464251554642515546425155464251554642535531494f556c6b4e33557a4e6e5a705548526d4c325a314f484a73555338314c7a4a53645339425448684d616d35614b3031594e6e513462325a4c516a5251626d64574e5856504e32303052546473547a6832596d6452564868784d3264715545566b4f485232526c5258574564364f544a4d4f56637662464a79626d63345a554a35654442774b305a7464564e4d5231566e65557073596d6c5565554e5865544135556d747a52303569646e466d62544e7665484134526e4a354e4746325132673056454e71566a565455574e594d586461617a5a434e464e794d3270565354566b4e4664454e586335526c52365445685a6358464b65575a71535859775755315963546777596e4a70646c597a543364564d5338354d326c4c5a566c454d317071526d453062305a496358425a556c46764d4759725a456c7a5a6a6431655552486479733462315a5153464647547a563352327047526b5a716456685456474533556c563457457855595645354b3264304d554d30636d773464474e6b633252545747303552545a5a52556434636b6772636d56504d55466a557a6454597a424f61456c47526a6c7163565a54566a424a4f47354752334e56593268554c7a685752326c7157446c456330684561557056566c4e5364486c795254565857456848646e6c77556d4e724d32785454444e7557475a4a4e327772644339426557357862444e5851305a34564668504e32357a56326334646b744f6255307a543070304e484a305233464654485a6f53474e535330316a4d6d78744d6a5a5a5555706a4d315a5a557a5a3265546c4c6246684a616d633356456777596a6c32553256594e6e6451566e593156793946625863315a564259556c5a685257387759316c775a6a564764466378526c633265433976566c6c514e33673552565a4e4d5852524d3235715647746a566b7044546a4e766548426b5a45784f556a4530516c46425155464251554642515546425155464251554642515546425155464251554642515546425155465151586f76516b4a6e5156497253324e70596b6c7652584652515546425155465456565a50556b733151316c4a535430694369416766517039",
  "devdoc": {
    "kind": "dev",
    "methods": {},
    "version": 1
  },
  "userdoc": {
    "kind": "user",
    "methods": {},
    "version": 1
  },
  "storageLayout": {
    "storage": [
      {
        "astId": 2735,
        "contract": "contracts/BleulandFollies.sol:BleulandFollies",
        "label": "nftImplementation",
        "offset": 0,
        "slot": "0",
        "type": "t_contract(IBaseERC721Interface)2980"
      },
      {
        "astId": 1841,
        "contract": "contracts/BleulandFollies.sol:BleulandFollies",
        "label": "atId",
        "offset": 0,
        "slot": "1",
        "type": "t_struct(Counter)1494_storage"
      },
      {
        "astId": 1845,
        "contract": "contracts/BleulandFollies.sol:BleulandFollies",
        "label": "myUris",
        "offset": 0,
        "slot": "2",
        "type": "t_mapping(t_uint256,t_string_storage)"
      },
      {
        "astId": 1907,
        "contract": "contracts/BleulandFollies.sol:BleulandFollies",
        "label": "contractInfo",
        "offset": 0,
        "slot": "3",
        "type": "t_string_storage"
      }
    ],
    "types": {
      "t_contract(IBaseERC721Interface)2980": {
        "encoding": "inplace",
        "label": "contract IBaseERC721Interface",
        "numberOfBytes": "20"
      },
      "t_mapping(t_uint256,t_string_storage)": {
        "encoding": "mapping",
        "key": "t_uint256",
        "label": "mapping(uint256 => string)",
        "numberOfBytes": "32",
        "value": "t_string_storage"
      },
      "t_string_storage": {
        "encoding": "bytes",
        "label": "string",
        "numberOfBytes": "32"
      },
      "t_struct(Counter)1494_storage": {
        "encoding": "inplace",
        "label": "struct CountersUpgradeable.Counter",
        "members": [
          {
            "astId": 1493,
            "contract": "contracts/BleulandFollies.sol:BleulandFollies",
            "label": "_value",
            "offset": 0,
            "slot": "0",
            "type": "t_uint256"
          }
        ],
        "numberOfBytes": "32"
      },
      "t_uint256": {
        "encoding": "inplace",
        "label": "uint256",
        "numberOfBytes": "32"
      }
    }
  }
}